:020000040800F2
:10000000002000204D110008D9100008DB10000866
:1000100000000000000000000000000000000000E0
:10002000000000000000000000000000DD100008DB
:100030000000000000000000DF100008E1100008D0
:100040009D1100089D1100089D1100089D110008D8
:100050009D1100089D1100089D1100089D110008C8
:100060009D1100089D1100089D1100089D110008B8
:100070009D1100089D1100089D1100089D110008A8
:100080009D1100089D110008000000009D1100084E
:100090009D1100089D1100089D1100089D11000888
:1000A0009D1100089D1100089D1100089D11000878
:1000B0009D110008000000009D11000800000000D4
:1000C00010B5064C2378002B07D1054B002B02D02E
:1000D000044800E000BF0123237010BD040000208D
:1000E00000000000FC110008044B10B5002B03D0E9
:1000F0000349044800E000BF10BDC04600000000F6
:1001000008000020FC110008002243088B4274D331
:1001100003098B425FD3030A8B4244D3030B8B4208
:1001200028D3030C8B420DD3FF22090212BA030C11
:100130008B4202D31212090265D0030B8B4219D3F2
:1001400000E0090AC30B8B4201D3CB03C01A524112
:10015000830B8B4201D38B03C01A5241430B8B425A
:1001600001D34B03C01A5241030B8B4201D30B0343
:10017000C01A5241C30A8B4201D3CB02C01A52416A
:10018000830A8B4201D38B02C01A5241430A8B422D
:1001900001D34B02C01A5241030A8B4201D30B0216
:1001A000C01A5241CDD2C3098B4201D3CB01C01A30
:1001B000524183098B4201D38B01C01A524143093A
:1001C0008B4201D34B01C01A524103098B4201D328
:1001D0000B01C01A5241C3088B4201D3CB00C01A95
:1001E000524183088B4201D38B00C01A524143080D
:1001F0008B4201D34B00C01A5241411A00D2014632
:10020000524110467047FFE701B5002000F006F8A4
:1002100002BDC0460029F7D076E770477047C04658
:1002200010B5040000F0F0FBFA218900FFF76CFF25
:1002300000F056F8012000222100404200F020F892
:10024000002010BD1023064A10B5116800200B4392
:100250001360FFF7E5FF00F0FDFE002010BDC04673
:1002600000200240024A1368013313607047C04601
:1002700020000020014B18687047C0462000002075
:1002800070B58901002814DA0F23C0B20340083B7F
:10029000114A9B089B009B18032210409040FC329F
:1002A0001500114085408140DC69AC432143D96190
:1002B00070BD032583082840A840FC352E00074A5E
:1002C0009B009B18C02286402940814092009C5888
:1002D000B44321439950EBE700ED00E000E100E07A
:1002E000094A431E012093420DD8C021074A0848FD
:1002F0005360036A09061B021B0A0B4303620020BA
:100300000723906013607047FFFFFF0010E000E0DC
:1003100000ED00E0054B1A68042802D11043186074
:10032000704704218A431A60FAE7C04610E000E0F3
:10033000704710B5FFF7FCFF10BD0000F0B50B686B
:1003400087B0029300230191029ADA4001D107B0ED
:10035000F0BD01229A4003920399029A0A4000924A
:1003600000D18CE0019A1021526816008E43022EB3
:100370000ED107251D40AD000139A940DC08A400BD
:100380000419276A8F4301990969A9400F4327621D
:1003900003245F00BC40E4430568013E2540AC46B1
:1003A00003251540BD4061460D430560012E0FD861
:1003B00001998668CD682640BD4035438560466812
:1003C000039915098E4301210D409D403543456039
:1003D000C56801992C408D688021BD4049052C439A
:1003E000C4600A424BD00121264C0326A5691E4059
:1003F0000D43A561A4699D080C400594059C0F243C
:100400002149AD00B6006D18B4409021AF68C90510
:10041000A743002488420CD01C490134884208D0EC
:100420001B490134884204D01A490334884200D160
:10043000023CB44000993C430E00AC60164CCD43E6
:1004400027683E43D10301D43E002E4026606768F2
:10045000009E3E43910301D43E002E406660A76893
:10046000009E3E43D10201D43E002E40A660E668C5
:10047000009F3743920201D42E403700E7600133DA
:1004800062E7C0460010024000000140000400483E
:1004900000080048000C00480004014000690840C2
:1004A000411E8841C0B27047002A01D08161704767
:1004B0008162FCE7F0B5036885B00500DB072FD447
:1004C0002B689B0700D581E02B681B0700D5BCE09B
:1004D0002B685B0700D5DFE02B68DB061AD56A695D
:1004E000B54C0423012A00D04BE1616B02260B437B
:1004F0006363636B1A436263FFF7BCFE0700636BC1
:10050000334200D136E1F821626BAB698A43DB00EC
:1005100013436363296A002900D059E1002013E0E6
:100520000C21A54C62680A40042A06D063680B407F
:10053000082B0BD16368DB0308D523689B03BFD569
:100540006B68002BBCD1012005B0F0BD6B68012B9E
:1005500013D1802322685B0213432360FFF78AFED6
:1005600080260700B60223683342A9D1FFF782FE36
:10057000C01B6428F7D90320E6E7002B16D12368B7
:100580008E4A80261340236023688D4AB6021340AA
:100590002360FFF76FFE07002368334200D18FE727
:1005A000FFF768FEC01B6428F6D9E4E7052B05D1E8
:1005B00080232268DB0213432360CAE723687F4A53
:1005C0001340236023687E4A1340C6E70C227A4C0E
:1005D0006368134206D063681340082B10D1636828
:1005E000DB030DD423689B0702D5EB68012BAAD14E
:1005F000F82122682B698A43DB001343236063E7F9
:10060000EA680123002A0FD02268022613432360E0
:10061000FFF730FE070023683342E9D1FFF72AFED7
:10062000C01B0228F7D9A6E7226802269A43226057
:10063000FFF720FE07002368334200D144E7FFF7AD
:1006400019FEC01B0228F6D995E7EA6901235A4C26
:10065000002A10D0626A022613436362FFF70AFE83
:100660000700636A334200D032E7FFF703FEC01B86
:100670000228F6D97FE7626A02269A436262FFF790
:10068000F9FD0700636A334200D121E7FFF7F2FD6D
:10069000C01B0228F6D96EE780220021464C520585
:1006A000E3690091134208D1E3691343E361E3690D
:1006B00013400393039B012300938027414E7F0047
:1006C00033683B4206D0AB68012B13D1226A134337
:1006D000236230E033683B433360FFF7CBFD01908A
:1006E00033683B42EFD1FFF7C5FD019BC01A642878
:1006F000F6D940E70122002B14D1236A0227934345
:100700002362236A033293432362FFF7B3FD06009B
:10071000236A3B4225D0FFF7ADFD2B4B801B98424F
:10072000F6D928E7052B0BD1216A013B0B43236245
:10073000236A1A432262FFF79DFD022706000DE09F
:10074000236A934304222362236A9343C0E7FFF79B
:1007500091FD1D4B801B984200D90CE7236A3B4258
:10076000F5D0009B012B00D0B6E6E369174A134091
:10077000E361B1E6FFF77EFDC01B022800D8BEE6AC
:10078000F9E6053203D1626B9A436263BBE6626BA2
:100790000226134301226363636B93436363FFF792
:1007A00069FD0700636B334200D1B3E6FFF762FDDA
:1007B000C01B0228F6D9DEE600100240FFFFFEFF54
:1007C000FFFFFBFF0070004088130000FFFFFFEFFA
:1007D0000C22264C012063681340082B00D1B3E69D
:1007E0002368234A1340236002292FD1FFF742FDDB
:1007F00080260700B6042368334221D10F22E36A22
:100800009343EA6A1343E362696AAB6A62680B4323
:10081000184980250A4013436360802322685B04E3
:1008200013432360FFF726FD0600AD0423682B4227
:1008300000D073E6FFF71EFD801B0228F6D99AE66A
:10084000FFF718FDC01B0228D5D994E6FFF712FD6B
:1008500080250600AD0423682B4200D15EE6FFF739
:1008600009FD801B0228F6D985E6C046001002402B
:10087000FFFFFFFEFFFFC2FF70B5144C88B01022CF
:100880002100684600F0B0FC210004AD10221031B8
:10089000280000F0A9FC0C220D4E73681A40082AAB
:1008A00011D10F206A46990C0140545CF26A024053
:1008B000A95CDB0305D50748FFF726FC604308B0B9
:1008C00070BD0548FAE70348F9E7C046141200086E
:1008D0000010024000127A0000093D00F7B5012225
:1008E000434C060023680F0013408B421CD3326830
:1008F000930723D4D30729D4012322681A409742AF
:1009000067D333683B4C5B076AD4FFF7B5FF636876
:10091000394A1B061B0FD35CD840384B18600020A7
:10092000FFF77EFC002008E0236893430B4323601D
:10093000236813409942DAD00120FEBDF0202D49F2
:100940004B688343B06803434B60D3E7294D72681B
:100950002B68012A1AD19B03EED503216B688B43C8
:1009600013436B60FFF786FC73680190012B15D170
:100970000C226B681340042BBED0FFF77BFC019B5D
:10098000C01A1F4B9842F3D90320D6E7022A02D19E
:100990009B01E2D4D0E79B07DFD4CDE7022B12D036
:1009A0000C226B681342A7D0FFF764FC019BC01AAE
:1009B000134B9842F4D9E7E7FFF75CFC019BC01AA0
:1009C0000F4B9842E0D80C226B681340082BF3D1F0
:1009D00092E722689A43226022681A42ACD190E7DB
:1009E0006368084A1340F268134363608DE7C046AA
:1009F00000200240001002403412000800000020D5
:100A000088130000FFF8FFFF014B18687047C046CD
:100A100000000020E021036810B55A688A435A603C
:100A200082224168520091420CD1802182680902E1
:100A30008A4203D08021C9008A4203D140211A682A
:100A40008A431A608021826A89018A4206D1196824
:100A5000074C2140196019680A431A6003000122FB
:100A60005D331A7000235C300370032010BDC04654
:100A7000FFDFFFFFF8B505000C00160080272B688C
:100A80009868384006D0621CFAD0002C03D12800A8
:100A9000FFF7C0FFF8BDFFF7EDFB801B8442EED8E7
:100AA000F5E7F0B5C02706000D00140085B00193EE
:100AB000FF0002AB3168DA1D886828400CD0BD42C7
:100AC00003D10B7BDBB213701378631CF4D0002CC2
:100AD00004D13000FFF79EFF05B0F0BDFFF7CAFB61
:100AE000019BC01A8442E4D8F3E770B513000D00EF
:100AF00016000A00C02149010400FFF7D2FF0028B8
:100B000005D02023226E0320134323660FE032001A
:100B100029002000FFF7AEFF0028F2D1C0213300EA
:100B20002A00C9002000FFF7BCFF0028E9D170BDF2
:100B3000F8B504000120002C4BD000232500A3624F
:100B40005D352B78DBB2002B05D122005C321370AF
:100B5000200000F09DFA0223402221682B700B68D0
:100B6000002093430B60E023E268DB009A4231D916
:100B7000F0263601B24233D10600206B002803D1A3
:100B80009A422FD902232363A7686368A0693B4375
:100B900027693B4367693B43E7693B43276A3B431C
:100BA000A76A3B438027BF0007403B430B60636A53
:100BB000000C1A43636B1A43042318401043064386
:100BC0004E60CB69084A00201340CB6101232066A8
:100BD0002B70F8BD802676019A42CED0A062CCE779
:100BE0000600FBE70123CEE7FFF7FFFFF7B51F0085
:100BF000030000925C331A7804000D000226012ADB
:100C000000D1AEE001221A70FFF734FB23000190FF
:100C10005D331B786168DBB2012B0BD0822252005E
:100C2000914200D096E0A268002A00D092E0042B06
:100C300000D08FE00126002D00D18BE0009B002B1F
:100C400000D187E0002F00D184E023005D331A78C3
:100C5000042A01D005221A70009A0023226422007F
:100C6000E026A01D08322366D787C787E068E364C3
:100C70002365A563E787A787F6002368B04202D8FB
:100C8000D28F012A31D95A68714E32405A604022BF
:100C900023681E68164202D11E6832431A60E022A1
:100CA0002600D200083690425DD9002902D0E28F9A
:100CB000012A06D12A880235DA60E38F013B9BB214
:100CC000E3870127E38F002B14D1F38F002B11D181
:100CD000019A08992000FFF708FF002800D0B3E030
:100CE000266E731E9E41F6B234E080225E68520189
:100CF0003243CBE7002F0FD0E38F002B0CD0022123
:100D000023689A680A4207D000272A886D18DA609B
:100D1000E38F013B9BB2E387F38F002B0FD00121C0
:100D200023689A680A420AD0DB68009A0F00138091
:100D3000130002330093F38F013B9BB2F387089BB0
:100D40000133BFD0FFF796FA019BC01A089B83427C
:100D5000B8D80326230001225D331A7000235C34C7
:100D600023703000FEBD002902D0E28F012A09D194
:100D7000E28F012A4CD92A880235DA60E38F023BE0
:100D80009BB2E3870127E38F002B03D1F38F002B66
:100D900000D19DE7002F12D0E38F002B0FD002214E
:100DA00023689A680A420AD0E28F012A38D92A8831
:100DB0006D18DA60E38F023B9BB2E3870027F38F65
:100DC000002B1AD0012123689A680A4215D0F28FAD
:100DD0008A422DD9DA68009901270A800A00023276
:100DE0000092F28F023A92B2F287F28FBA4204D89E
:100DF0008022596852010A435A60089B0133C2D0CD
:100E0000FFF738FA019BC01A089B8342BBD8A0E7C2
:100E10002A7801351A73E38F013B9BB2E387B1E770
:100E20002A7801351A73E38F013B9BB2E387C5E74C
:100E30001B7B009A01271370F38F013B9BB2F38752
:100E4000130001330093D8E72023236648E7C04608
:100E5000FFEFFFFF802330B5902585B05B4202ACE9
:100E60001843ED0520706170280000221021FFF763
:100E70001BFB322303AA00932100303B0448FFF7F9
:100E8000B5FE012210212800FFF70EFB05B030BD92
:100E900024000020022310B590B00493013B079377
:100EA0000F330893002304A80C93FFF703FB011EE4
:100EB00000D0FEE70723019002900390684600935C
:100EC000FFF70CFD041E00D0FEE7FFF79DFDFA21A1
:100ED0008900FFF719F9FFF703FA0420FFF71AFA60
:100EE0000120220021004042FFF7CAF910B010BDD6
:100EF000F0B589B0FFF7A6F9FFF7CCFF8020504B83
:100F000080025969C424014359615A69A40002400E
:100F100080200092009A5969C002014359618021E2
:100F20005A690903024090200192019A5A69C0054A
:100F30000A435A615B6900220B4002932100029B25
:100F4000FFF7B2FA902003940126002403A9C005FC
:100F5000049605940694FFF7F1F9E02303A91B0218
:100F60003848039304940594FFF7E8F9F02303A9A4
:100F70009B003548039304940594FFF7DFF9334849
:100F8000334B2025036082235B004360E023DB00BA
:100F9000C36080239B008361FA3BFF3B8460046154
:100FA0004461C561046244628462C3620463446351
:100FB000FFF7BEFD0700A04200D0FEE701003000B1
:100FC000FFF748FF40212048FFF768FA2C0000286F
:100FD00009D080211C48FFF761FA041E27D10221A5
:100FE0000920FFF737FF802117484900FFF756FA1D
:100FF0000621002800D0073121430120FFF72AFFF6
:10100000802111488900FFF749FA002815D1802175
:101010000230FFF71FFF80210320FFF71BFF802115
:10102000902001228900C005FFF73EFAFEE7390053
:101030000920FFF70FFF3C00D5E700210220E8E779
:10104000001002400004004800080048240000206E
:101050000030014007B501200C4A916901439161BC
:10106000936900220340110001930638019BFFF7AA
:1010700007F90022022011004042FFF701F9002287
:10108000012011004042FFF7FBF807BD00100240AD
:101090007FB50F4B02689A4217D180200D4A40015C
:1010A0009169014391619369032203400093009B7E
:1010B000E02390200193DE3B0293002301A9C005A9
:1010C000039304920593FFF739F907B000BDC046BA
:1010D00000300140001002407047FEE77047704743
:1010E00010B5FFF7BFF8FFF724F910BD0121114B30
:1010F00011481A680A431A605A6802405A601A680E
:101100000E4802401A601A680D4802401A605A6878
:101110000C4802400F205A60DA6A8243DA621A6B86
:10112000094802401A635A6B8A435A6300229A6044
:101130007047C046001002400CB8FFF8FFFFF6FEF3
:10114000FFFFFBFFFFFFC0FFACFEFFFF0D48854622
:10115000002103E00C4B5B58435004310B480C4B0F
:1011600042189A42F6D30B4A02E00023136004327D
:10117000094B9A42F9D3FFF7B9FF00F011F8FFF7D6
:10118000B7FEFEE7002000204C12000800000020FF
:10119000040000200400002088000020FEE700007A
:1011A00070B500260C4D0D4C641BA410A64209D14D
:1011B000002600F023F80A4D0A4C641BA410A64236
:1011C00005D170BDB300EB5898470136EEE7B30088
:1011D000EB5898470136F2E7441200084412000821
:1011E0004412000848120008002310B59A4200D1AA
:1011F00010BDCC5CC4540133F8E70000F8B5C0461C
:10120000F8BC08BC9E467047F8B5C046F8BC08BCA0
:041210009E4670473F
:1012140002030405060708090A0B0C0D0E0F101033
:101224000102030405060708090A0B0C0D0E0F1032
:101234000000000000000000010203040607080982
:04124400E9000008B5
:04124800C1000008D9
:04124C0000127A0012
:040000050800114D91
:00000001FF
