:020000040800F2
:1000000000200020F13D0008413E0008413E00086C
:1000100000000000000000000000000000000000E0
:100020000000000000000000000000006D3A000821
:1000300000000000000000006F3A0008713A00085C
:10004000413E0008413E0008413E0008413E000894
:10005000413E0008413E0008413E0008413E000884
:10006000413E0008413E0008413E0008413E000874
:10007000413E0008413E0008413E0008413E000864
:10008000413E0008413E000800000000413E0008DB
:10009000413E00087D3A0008413E0008413E00080C
:1000A000413E0008413E00088D3A00089D3A000894
:1000B000413E000800000000413E00080000000032
:1000C00010B5064C2378002B07D1054B002B02D02E
:1000D000044800E000BF0123237010BD040000208D
:1000E00000000000B03E0008044B10B5002B03D008
:1000F0000349044800E000BF10BDC04600000000F6
:1001000008000020B03E000802B4714649084900CA
:10011000095649008E4402BC7047C04602B471467D
:1001200049084900095C49008E4402BC7047C0463A
:10013000002243088B4274D303098B425FD3030A26
:100140008B4244D3030B8B4228D3030C8B420DD339
:10015000FF22090212BA030C8B4202D312120902C7
:1001600065D0030B8B4219D300E0090AC30B8B4205
:1001700001D3CB03C01A5241830B8B4201D38B03B3
:10018000C01A5241430B8B4201D34B03C01A524158
:10019000030B8B4201D30B03C01A5241C30A8B429B
:1001A00001D3CB02C01A5241830A8B4201D38B0286
:1001B000C01A5241430A8B4201D34B02C01A52412A
:1001C000030A8B4201D30B02C01A5241CDD2C3099C
:1001D0008B4201D3CB01C01A524183098B4201D318
:1001E0008B01C01A524143098B4201D34B01C01A03
:1001F000524103098B4201D30B01C01A5241C3087B
:100200008B4201D3CB00C01A524183088B4201D3E9
:100210008B00C01A524143088B4201D34B00C01AD5
:100220005241411A00D20146524110467047FFE741
:1002300001B5002000F006F802BDC0460029F7D045
:1002400076E770477047C0468446081C6146FFE762
:100250001FB500F08BFB002801D40021C8421FBD50
:1002600010B500F01DFB4042013010BD10B500F08C
:100270007DFB002801DB002010BD012010BDC04621
:1002800010B500F073FB002801DD002010BD012037
:1002900010BDC04610B500F029FB002801DC00208D
:1002A00010BD012010BDC04610B500F01FFB002896
:1002B00001DA002010BD012010BDC0469E2110B5FE
:1002C000C905041CFFF7F0FF002803D1201C00F033
:1002D0004BFE10BD9E21201CC90500F0A9FC00F0BA
:1002E00043FE80231B069C466044F2E7F0B5C646F9
:1002F0004E024702760A7B0A4400C50FF700480009
:10030000984600B5240E2A00DB00000EC90FBC463B
:100310008D4267D0221A002A00DCA5E000283AD1DD
:10032000002F00D193E0511E002900D0BCE0012431
:10033000DB1B5A0146D59B019E09300000F0CAFE26
:1003400005388640844200DD9DE0041B32002020F9
:100350000134E240041BA64033005E1EB34100247A
:1003600013435A0704D00F221A40042A00D0043342
:100370005A0129D50134FF2C00D181E02A009B01CC
:100380005B0AE4B25B02E405580AD207204310433B
:1003900004BC9046F0BDFF2CE3D080213800C90496
:1003A000084384461B2A00DD82E020206146D140BC
:1003B000821A604690400200501E82410A439B1AF6
:1003C0005A01B8D45A07CED1DE082A00FF2C3AD100
:1003D000002E00D1AEE08023DB0333435B025B0AD7
:1003E000FF24CFE7211A002952DD002831D0FF2C4D
:1003F000B7D080203E00C0040643B4461B2900DD70
:10040000AAE020266046C840711A66468E40310038
:100410004E1EB14101435B185901D3D50134FF2C65
:1004200000D187E0012278491A405B080B40134352
:1004300097E7002C00D0A7E0002B00D0B6E03B1ED1
:1004400062D10026002273025B0AE4B29AE714002C
:1004500087E7002F4DD0481E002857D16344012460
:100460005A01AFD50224DDE7002A24D1621CD2B2A2
:10047000012ADEDDDE1B720135D5FE1A0D005CE7B8
:100480002A0000237EE73300604A241A134068E7FD
:10049000002963D1611CC8B201284EDDFF2949D073
:1004A00063445B080C005CE7FF2A41D00A0079E74F
:1004B00001229B1A84E7002C1DD0FF2822D0802423
:1004C000E404524223431B2A00DD8AE01C0020255D
:1004D000D440AA1A93405A1E934123436246040013
:1004E000D31A0D0025E7002E00D026E700220024B5
:1004F000A9E70C0035E7002B4DD0D243002AEDD000
:10050000FF28E0D16346FF240D002AE7FF290FD022
:10051000010073E7002B61D0FF24002F00D120E7FA
:1005200080224146D203114202D0164200D13B0044
:10053000FF2416E7FF24002324E7002CEAD1002B38
:1005400058D0002F00D10CE763445A0100D439E79A
:100550002E4A0C00134004E701215CE7002C1ED159
:10056000002B40D0C94300290BD0FF2836D01B29CF
:1005700047DC1C002026CC40711A8B40591E8B4151
:1005800023436344040047E7002B18D13B1E2DD0C2
:100590000D00FF24E5E63B0004000D00E1E6FF2826
:1005A0001CD08024E40449422343E0E7002F00D11B
:1005B000D7E6DE1B72011FD5FB1A0D00D1E6FF2422
:1005C000002F00D1CDE680224046D2031042AFD0AA
:1005D0001642ADD13B000D00FF24C2E66346FF2466
:1005E000BFE601237AE73B000400BAE6802600223A
:1005F000F603F0E63B00B4E6331E00D0E2E600224C
:1006000021E70123BDE7C046FFFFFF7DFFFFFFFBA2
:10061000F0B557464E46DE464546E0B54402430037
:10062000C60F83B00F1C640A1B0EB24653D0FF2BBB
:1006300027D08022E400D20414437F225242904605
:100640009844002399469B467D027800FB0F6D0A73
:10065000000E009324D0FF2846D080230021ED0017
:10066000DB041D437F384746381A4F460F43BF000F
:10067000B9463300009A874F53404A46BA5801930F
:100680009746002C4ED108239946F7339846FD3BF8
:100690009B467D027800FB0F6D0A000E0093DAD1B5
:1006A000002D26D1002001213300009A7A4F5340BB
:1006B0004246101A4A460A439200BA581D0097460D
:1006C000009B2C009A468B465B46022B31D1534649
:1006D000FF21002438E0002C17D104239946002381
:1006E000984601339B46AFE7FF20002D0BD1022136
:1006F000DAE7280000F0EEFC431F9D4076235B42C2
:10070000181A0021AFE70321ADE7200000F0E2FC5A
:10071000431F9C4076235B421B1A98460023994650
:100720009B4691E70C239946F3339846FC3B9B4646
:100730008AE7032B00D1A5E05546012B00D081E0CC
:100740000123002100242B406402C905600ADB0755
:100750000843184303B03CBC90469946A246AB46BA
:10076000F0BD80240023E403FF21EDE7FF210024F6
:10077000EAE70123591A1B2966DD019A134000217B
:100780000024E1E78023DB031C4238D01D4251D016
:100790001C436402640A3300FF21D5E763016C0146
:1007A000A3423BD21B260021013801251F0049002E
:1007B0005B00002F01DB9C4201D81B1B2943013E3B
:1007C000002EF3D11C00631E9C410C4301007F31BD
:1007D0000029CEDD630704D00F232340042B00D073
:1007E0000434230103D501002C4B80311C40FE2929
:1007F0000DDD0123019AFF2113400024A4E780238B
:10080000DB031C436402640A3300FF219CE70123DD
:10081000019AA401640AC9B2134095E71B1B1A266A
:100820000121C2E7009B8B469A4600244CE76302F5
:10083000E5D500258024E4032C436402640A009B70
:10084000FF2181E70195C1E723002020CB40411A19
:100850008C40611E8C411C43630704D00F2323404E
:10086000042B00D00434630105D50123019A012132
:100870001340002468E70123019AA401640A13408D
:10088000002161E78023DB031C436402640A5346B2
:10089000FF2159E7E83E0008283F0008FFFFFFF767
:1008A00070B5420045024E024C00C30F6D0A120E95
:1008B000760A240EC90F0120FF2A06D0FF2C03D090
:1008C000A24201D1B54206D070BD002DFCD1FF2C53
:1008D000FAD1002EF8D18B4206D00120002AF3D1A4
:1008E0002800451EA841EFE70020EDE7F0B54200E3
:1008F00045024C02C30F48006D0A120E640A000E36
:10090000C90FFF2A1ED0FF2821D0002A0AD16E422B
:100910006E41F6B200280FD1002C0DD10020002D21
:1009200009D005E0002801D1002C01D08B4211D064
:10093000012158420843F0BD002EF7D001200139B3
:100940000843F8E7002DDED002204042F3E7002CF8
:10095000DBD0F9E78242EBDC04DBA542E8D80020DB
:10096000A542E8D20121581E0843E4E7F0B5420051
:100970004D024C004602760A120EC30F6D0A240E79
:10098000C90FFF2A16D0FF2C18D0002A0AD17042B6
:100990007041C0B2002C15D0002805D001200139CB
:1009A0000843F0BD002C13D0994214D001205B42C3
:1009B0001843F6E70220002EF3D1E4E70220002DD1
:1009C000EFD1E2E7002DE7D10020002EE9D0EDE7DE
:1009D000002DE9D1EAE7A24206DCDFDBAE4203D814
:1009E0000020AE42DAD3DCE7012049420843D8E7D1
:1009F000F8B557464E464546DE46E0B54702460046
:100A000088467F0A360EC40F002E47D0FF2E24D012
:100A1000FB008027FF041F43002399469A467F3E30
:100A200043465D025800DB0F6D0A000E984643D026
:100A3000FF283BD0EB0080250022ED041D437F38CA
:100A40003618731C41469B464B46614013430F2B9F
:100A500064D875489B00C3589F46002F42D1082395
:100A60009946063BFF269A46DAE74146022A28D0F5
:100A7000032A00D1CEE0012A00D0ACE011400020D2
:100A80000022CCB24002D205400AE40710432043C2
:100A90003CBC90469946A246AB46F8BD002F15D106
:100AA00004239946033B00269A46B9E7FF20022219
:100AB000002DC5D00322C3E7002D19D1002001224B
:100AC000BEE70124FF220C400020DBE7380000F0E5
:100AD00001FB7626431F9F4000237642361A994633
:100AE0009A469DE70C239946093BFF269A4697E7CD
:100AF000280000F0EFFA431F9D4076235B42181A4E
:100B000000229DE780200024C003FF22BAE73D00B9
:100B10005246ABE73D0021005246A7E73B0C9C46FE
:100B20002A04120C2B0C1400604665463F043F0C4F
:100B30007C4342435D437B43270C9B18FF18BA421A
:100B400003D980235B029C46654424043A04240CA8
:100B5000121993015C1EA3413F0C920E7D191A439A
:100B6000AD0115432B0104D501235E466A081D40E3
:100B7000154332007F32002A25DD6B0704D00F2396
:100B80002B40042B00D004352B0103D53200274B1A
:100B900080321D40FE2A94DC0124A801400AD2B212
:100BA0000C406FE78020C003074207D0054205D103
:100BB00028434002400A4446FF2263E7384340028C
:100BC000400AFF225EE70124A31A1B2B05DD0C401F
:100BD0000022002056E75E46CBE72A002020DA40BC
:100BE000C31A9D402B005D1EAB4113435A0704D02E
:100BF0000F221A40042A00D004335A0104D50124DC
:100C000001220C4000203DE701249B01580A0C40C2
:100C1000002237E780200124C00328434002400A15
:100C20000C40FF222EE7C046683F0008FFFFFFF799
:100C3000F0B54F46D64646464400C0B5C20F4702FF
:100C40004802400A844666467B0A4800C90F9A4615
:100C5000240E1500DB00000E8946F600FF2800D1A7
:100C60008FE001214F464F403900914266D0221A51
:100C7000002A00DC9DE000283DD1002E00D18BE051
:100C8000511E002900D0B5E001249B1B5A0144D518
:100C90009B019F09380000F01DFA05388740844207
:100CA00000DD96E0041B3A0020200134E240041BE2
:100CB000A7403B005F1EBB41002413435A0704D0EA
:100CC0000F221A40042A00D004335A0127D50134D8
:100CD000FF2C00D179E001229B015B0AE4B22A409B
:100CE0005B02E405580AD207204310431CBC90461F
:100CF0009946A246F0BDFF2CE0D08021C9040E43E6
:100D00001B2A7BDC31002020D140821A9640721EC3
:100D100096410E439B1B5A01BAD45A07D0D10122E7
:100D2000DF082A40FF2C33D1002F00D1A8E0802318
:100D3000DB033B435B025B0AFF24D1E7211A002956
:100D40004CDD00282AD0FF2CB8D08020C0040643F8
:100D50001B2900DDAFE030002027C840791A8E4003
:100D6000711E8E4106439B195901D6D50134FF2CC3
:100D700000D185E001227A491A405B080B401343F9
:100D80009CE7002E00D070E76BE73B1EC5D1002228
:100D90007B025B0AE4B2A3E714008FE7002E4DD07C
:100DA000481E002857D19B1901245A01B5D50224A9
:100DB000E0E7002A25D1621CD2B2012A72DD9F1B16
:100DC0007A0135D5F71A0D0064E7012200232A4085
:100DD00086E73B00634A241A13406FE700296CD171
:100DE000611CC8B201284EDDFF2949D09B195B0860
:100DF0000C0063E7FF2A41D00A0081E701269B1B14
:100E000089E7002C1CD0FF2821D08024E404524222
:100E100023431B2A00DD96E01C002025D440AA1A9B
:100E200093405A1E93412343F31A04000D002DE70B
:100E3000002F00D02EE700220024A9E70C003DE798
:100E4000002B58D0D243002AEED0FF28E1D1330046
:100E5000FF240D0032E7FF2910D0010078E7002BB6
:100E60006ED0FF24002E00D128E780225146D20305
:100E7000114203D06146114200D13300FF241DE727
:100E8000FF2400232CE7002CE9D1002B63D0002E97
:100E900000D113E79B195A0100D43EE7314A0C00F8
:100EA00013400BE7002C1ED1002B2FD1002E4FD06A
:100EB00033000D0002E7012655E7002C1FD1002B5F
:100EC00043D0C94300290BD0FF2839D01B2944DC6B
:100ED0001C002027CC40791A8B40591E8B4123439C
:100EE0009B19040040E7002B1AD1002E24D1802743
:100EF0000022FF031BE7330004000D00DEE6FF289D
:100F00001ED08024E40449422343DFE7002E00D1B1
:100F1000D4E69F1B7A0100D437E7F31A0D00CDE623
:100F2000FF24002E00D1C9E680225046D203104291
:100F3000A4D060461042A1D133000D00FF24BDE6CD
:100F40003300FF24BAE601236EE733000400B5E660
:100F5000002700221CE73300B0E60123C0E7C046AB
:100F6000FFFFFF7DFFFFFFFB41024300C20F490A65
:100F70001B0E00207E2B0DDD9D2B0CDC8020000441
:100F80000143952B0ADC9620C31AD9404842002A17
:100F900000D108007047034BD018FBE7963B9940FF
:100FA000F4E7C046FFFFFF7F70B5002830D0C317BD
:100FB000C4185C40C50F200000F08CF89E231B1A5B
:100FC000962B0DDC9622D21A94402A006402640A01
:100FD000DBB26402DB05600AD2071843104370BD20
:100FE000992B19DC9922D21A002A29DD944022007B
:100FF000144C1440510704D00F210A40042A00D099
:101000000434620113D4A401640ADBB22A00E0E7CD
:10101000002200230024DCE705222100121AD1401F
:10102000B922D21A9440621E94410C43DAE7054B70
:101030002A001C409F23A4011B1A640ADBB2C8E7E4
:101040002200D5E7FFFFFFFB10B5041E27D000F0FC
:1010500041F89E231B1A962B0ADC9622D21A944042
:101060006402640ADBB26402DB05600A184310BD47
:10107000992B17DC9922D21A002A27DD94402200EE
:10108000134C1440510704D00F210A40042A00D009
:101090000434620112D4A401640ADBB2E3E7002342
:1010A0000024E0E7B9222100D21A91400A00511E23
:1010B0008A410521091ACC401443DBE7044B1C404C
:1010C0009F23A4011B1A640ADBB2CCE72200D7E7F6
:1010D000FFFFFFFB1C2101231B04984201D3000CDE
:1010E00010391B0A984201D3000A08391B0998429B
:1010F00001D30009043902A2105C40187047C046B1
:1011000004030202010101010000000000000000D0
:1011100010B5040000F050FDFA218900FFF708F82F
:1011200000F096F9012000222100404200F056F91B
:10113000002010BD1023064A10B5116800200B4393
:101140001360FFF7E5FF02F073FC002010BDC046FE
:1011500000200240024A1368013313607047C04602
:1011600048000020014B18687047C0464800002026
:1011700037B50190FFF7F6FF019C0500631C5A1E6E
:101180009341E418FFF7EEFF401BA042FAD337BDAE
:10119000F8B504000120002C72D0636C002B06D13E
:1011A00022004032A3642000137002F081F8636CC7
:1011B000DB0600D579E0042223689868104000D04F
:1011C00073E0626C4249114002220A4303216264C7
:1011D0009A680A40012A00D06DE01968114202D1D4
:1011E000DA68120467D5DA683A49256A0A40DA6093
:1011F000A2696F039103E269D2031143626B013A62
:10120000561EB2411603E268114322690F43022AB7
:1012100000D10420226B616A52003A4332430243F8
:10122000012904D1002D2CD1802149020A43C2207A
:10123000A16AFF30814202D0E06A01430A43802064
:10124000D96840051143D960A16B814202D0481E84
:10125000062807D8072558692940A84358615869C6
:1012600001435961DB681C490B409A4211D10020AF
:101270000322A064636C93431A0001231343636445
:10128000F8BD2020656C28436064A06C0143A16414
:10129000CDE71222636C012093431A0010231343FD
:1012A0006364A36C0343A364EAE71023626C012028
:1012B00013436364E4E71821DA688A43A1680A43A8
:1012C000DA601969626889008908114319618AE73F
:1012D000FDFEFFFF1902FEFFE7FF3F83F7B5002386
:1012E000040001934034237805000220012B2BD009
:1012F00001232A68AE6B9068237040075AD43048A7
:101300004F680D6887423FD0AB4018008023976A32
:101310005B05384390629E420FD0013E062E0CD9E9
:101320008B68072150690840834206D050690B4002
:10133000884350615069034353612B00103B022BDB
:1013400003D9002000232370FEBD1E4A80231168AC
:10135000102D15D0112D15D05B040B431360102DEB
:10136000EFD1194B19491868FEF7E2FE0A235843DA
:101370000190019B002BE4D0019B013B0193F8E716
:101380001B04EAE7DB03E8E7AB40916A99432B00D3
:10139000103B9162022BD4D80A4B1A68102D05D04D
:1013A000112D05D00A490A401A60CAE70949FAE72F
:1013B0000949F8E72022696C18000A436A64C1E70A
:1013C00001100000082701400000002040420F00EB
:1013D000FFFFFFFEFFFF7FFFFFFFBFFF70B589012B
:1013E000002814DA0F23C0B20340083B114A9B08BF
:1013F0009B009B18032210409040FC3215001140C6
:1014000085408140DC69AC432143D96170BD03252F
:1014100083082840A840FC352E00074A9B009B18F3
:10142000C02286402940814092009C58B443214309
:101430009950EBE700ED00E000E100E01F231840C9
:101440001E3B8340014A13607047C04600E100E044
:10145000094A431E012093420DD8C021074A08487B
:101460005360036A09061B021B0A0B430362002038
:101470000723906013607047FFFFFF0010E000E05B
:1014800000ED00E0054B1A68042802D110431860F3
:10149000704704218A431A60FAE7C04610E000E072
:1014A000704710B5FFF7FCFF10BD70B5841CE37FDB
:1014B000022B04D004238363033B180070BD0E216C
:1014C0000368056C1A688A431A60012219689143FF
:1014D00019601100A940C36B5960E277002483189A
:1014E000426BDC771300A242E7D090472300E4E789
:1014F000F0B50B6887B0029300230191029ADA409D
:1015000001D107B0F0BD01229A4003920399029ADB
:101510000A40009200D18CE0019A10215268160016
:101520008E43022E0ED107251D40AD000139A94082
:10153000DC08A4000419276A8F4301990969A940AE
:101540000F43276203245F00BC40E4430568013E6B
:101550002540AC4603251540BD4061460D4305605E
:10156000012E0FD801998668CD682640BD403543CD
:1015700085604668039915098E4301210D409D4001
:1015800035434560C56801992C408D688021BD4078
:1015900049052C43C4600A424BD00121264C032646
:1015A000A5691E400D43A561A4699D080C400594E2
:1015B000059C0F242149AD00B6006D18B440902160
:1015C000AF68C905A743002488420CD01C490134E8
:1015D000884208D01B490134884204D01A49033498
:1015E000884200D1023CB44000993C430E00AC60FC
:1015F000164CCD4327683E43D10301D43E002E4014
:1016000026606768009E3E43910301D43E002E4051
:101610006660A768009E3E43D10201D43E002E4082
:10162000A660E668009F3743920201D42E4037003F
:10163000E760013362E7C04600100240000001404D
:101640000004004800080048000C00480004014065
:10165000002A01D0816170478162FCE743695940EB
:1016600041617047F0B5036885B00500DB072FD4F2
:101670002B689B0700D581E02B681B0700D5BCE0D9
:101680002B685B0700D5DFE02B68DB061AD56A699B
:10169000B54C0423012A00D04BE1616B02260B43B9
:1016A0006363636B1A436263FFF75CFD0700636B60
:1016B000334200D136E1F821626BAB698A43DB002B
:1016C00013436363296A002900D059E1002013E025
:1016D0000C21A54C62680A40042A06D063680B40BE
:1016E000082B0BD16368DB0308D523689B03BFD5A8
:1016F0006B68002BBCD1012005B0F0BD6B68012BDD
:1017000013D1802322685B0213432360FFF72AFD75
:1017100080260700B60223683342A9D1FFF722FDD5
:10172000C01B6428F7D90320E6E7002B16D12368F5
:101730008E4A80261340236023688D4AB6021340E8
:101740002360FFF70FFD07002368334200D18FE7C6
:10175000FFF708FDC01B6428F6D9E4E7052B05D187
:1017600080232268DB0213432360CAE723687F4A91
:101770001340236023687E4A1340C6E70C227A4C4C
:101780006368134206D063681340082B10D1636866
:10179000DB030DD423689B0702D5EB68012BAAD18C
:1017A000F82122682B698A43DB001343236063E737
:1017B000EA680123002A0FD022680226134323601F
:1017C000FFF7D0FC070023683342E9D1FFF7CAFCDA
:1017D000C01B0228F7D9A6E7226802269A43226096
:1017E000FFF7C0FC07002368334200D144E7FFF74E
:1017F000B9FCC01B0228F6D995E7EA6901235A4CC7
:10180000002A10D0626A022613436362FFF7AAFC23
:101810000700636A334200D032E7FFF7A3FCC01B26
:101820000228F6D97FE7626A02269A436262FFF7CE
:1018300099FC0700636A334200D121E7FFF792FC6D
:10184000C01B0228F6D96EE780220021464C5205C3
:10185000E3690091134208D1E3691343E361E3694B
:1018600013400393039B012300938027414E7F0085
:1018700033683B4206D0AB68012B13D1226A134375
:10188000236230E033683B433360FFF76BFC019029
:1018900033683B42EFD1FFF765FC019BC01A642817
:1018A000F6D940E70122002B14D1236A0227934383
:1018B0002362236A033293432362FFF753FC06003B
:1018C000236A3B4225D0FFF74DFC2B4B801B9842EF
:1018D000F6D928E7052B0BD1216A013B0B43236284
:1018E000236A1A432262FFF73DFC022706000DE03F
:1018F000236A934304222362236A9343C0E7FFF7DA
:1019000031FC1D4B801B984200D90CE7236A3B42F7
:10191000F5D0009B012B00D0B6E6E369174A1340CF
:10192000E361B1E6FFF71EFCC01B022800D8BEE64B
:10193000F9E6053203D1626B9A436263BBE6626BE0
:101940000226134301226363636B93436363FFF7D0
:1019500009FC0700636B334200D1B3E6FFF702FCDA
:10196000C01B0228F6D9DEE600100240FFFFFEFF92
:10197000FFFFFBFF0070004088130000FFFFFFEF38
:101980000C22264C012063681340082B00D1B3E6DB
:101990002368234A1340236002292FD1FFF7E2FB7B
:1019A00080260700B6042368334221D10F22E36A60
:1019B0009343EA6A1343E362696AAB6A62680B4362
:1019C000184980250A4013436360802322685B0422
:1019D00013432360FFF7C6FB0600AD0423682B42C8
:1019E00000D073E6FFF7BEFB801B0228F6D99AE60B
:1019F000FFF7B8FBC01B0228D5D994E6FFF7B2FB6E
:101A000080250600AD0423682B4200D15EE6FFF777
:101A1000A9FB801B0228F6D985E6C04600100240CB
:101A2000FFFFFFFEFFFFC2FF70B5144C88B010220D
:101A30002100684602F02AFA210004AD102210317C
:101A4000280002F023FA0C220D4E73681A40082A6F
:101A500011D10F206A46990C0140545CF26A024091
:101A6000A95CDB0305D50748FEF762FB604308B0BD
:101A700070BD0548FAE70348F9E7C046C83E0008CC
:101A80000010024000127A0000093D00F7B5012263
:101A9000434C060023680F0013408B421CD332686E
:101AA000930723D4D30729D4012322681A409742ED
:101AB00067D333683B4C5B076AD4FFF7B5FF6368B5
:101AC000394A1B061B0FD35CD840384B18600020E6
:101AD000FFF71EFB002008E0236893430B432360BD
:101AE000236813409942DAD00120FEBDF0202D4931
:101AF0004B688343B06803434B60D3E7294D72685A
:101B00002B68012A1AD19B03EED503216B688B4306
:101B100013436B60FFF726FB73680190012B15D10F
:101B20000C226B681340042BBED0FFF71BFB019BFC
:101B3000C01A1F4B9842F3D90320D6E7022A02D1DC
:101B40009B01E2D4D0E79B07DFD4CDE7022B12D074
:101B50000C226B681342A7D0FFF704FB019BC01A4D
:101B6000134B9842F4D9E7E7FFF7FCFA019BC01A40
:101B70000F4B9842E0D80C226B681340082BF3D12E
:101B800092E722689A43226022681A42ACD190E719
:101B90006368084A1340F268134363608DE7C046E8
:101BA0000020024000100240C63F00080000002054
:101BB00088130000FFF8FFFF014B18687047C0460C
:101BC00000000020044B054A5B685B055B0FD35C9B
:101BD000034A1068D840704700100240D63F000802
:101BE00000000020F0B5036885B00500DB0328D5B0
:101BF000802200213B4C5205E3690091134208D139
:101C0000E3691343E361E36913400393039B0123F7
:101C100000938027344E7F0033683B422FD0C02290
:101C2000236A92001340314E3BD1236A1E406B68F9
:101C30001E43009B2662012B03D1E3692C4A13400B
:101C4000E3612A68D30706D5032026490B6B83433B
:101C5000A86803430B63930606D5102021490B6B3C
:101C60008343E86803430B630020530517D54021E5
:101C70001C4A136B8B4329690B4313630FE03368D2
:101C80003B433360FFF76EFA019033683B42C6D1A5
:101C9000FFF768FA019BC01A6428F6D9032005B043
:101CA000F0BD69680A409342BFD08023226A206A4F
:101CB00011005B0203432362236A0E483140034054
:101CC00023622162D307B0D5FFF74CFA0700022246
:101CD000236A1342A9D1FFF745FA074BC01B98426C
:101CE000F5D9DBE70010024000700040FFFCFFFF69
:101CF000FFFFFFEFFFFFFEFF88130000E0210368F6
:101D000010B55A688A435A60822241685200914253
:101D10000CD18021826809028A4203D08021C90047
:101D20008A4203D140211A688A431A608021826A5C
:101D300089018A4206D11968074C21401960196847
:101D40000A431A60030001225D331A7000235C30DD
:101D50000370032010BDC046FFDFFFFFF8B505008C
:101D60000C00160080272B689868384006D0621C4B
:101D7000FAD0002C03D12800FFF7C0FFF8BDFFF711
:101D8000F1F9801B8442EED8F5E7F0B5C0270600D4
:101D90000D00140085B00193FF0002AB3168DA1D1D
:101DA000886828400CD0BD4203D10B7BDBB2137096
:101DB0001378631CF4D0002C04D13000FFF79EFF91
:101DC00005B0F0BDFFF7CEF9019BC01A8442E4D8FC
:101DD000F3E770B513000D0016000A00C021490199
:101DE0000400FFF7D2FF002805D02023226E032035
:101DF000134323660FE0320029002000FFF7AEFFF7
:101E00000028F2D1C02133002A00C9002000FFF7CA
:101E1000BCFF0028E9D170BDF8B5822317004268E5
:101E200004000E005B009A420DD1802283681202EA
:101E3000934203D08022D200934204D140212268F1
:101E400013688B4313603A0031002000FFF786FFD0
:101E5000051E05D02023226E03251343236616E0BA
:101E6000822362685B009A4211D18022A368120229
:101E7000934203D08022D200934208D1C0213B007C
:101E80003200C9002000FFF780FF0028E2D12800BF
:101E9000F8BD0000F8B504000120002C4BD0002351
:101EA0002500A3625D352B78DBB2002B05D1220023
:101EB0005C321370200001F06FFD02234022216884
:101EC0002B700B68002093430B60E023E268DB007B
:101ED0009A4231D9F0263601B24233D10600206B46
:101EE000002803D19A422FD902232363A76863688D
:101EF000A0693B4327693B4367693B43E7693B4331
:101F0000276A3B43A76A3B438027BF0007403B4308
:101F10000B60636A000C1A43636B1A430423184076
:101F2000104306434E60CB69084A00201340CB6142
:101F3000012320662B70F8BD802676019A42CED010
:101F4000A062CCE70600FBE70123CEE7FFF7FFFF27
:101F5000F7B51F00030000925C331A7804000D00EF
:101F60000226012A00D1AEE001221A70FFF7FAF82A
:101F7000230001905D331B786168DBB2012B0BD02D
:101F800082225200914200D096E0A268002A00D03E
:101F900092E0042B00D08FE00126002D00D18BE0D1
:101FA000009B002B00D187E0002F00D184E02300AC
:101FB0005D331A78042A01D005221A70009A002392
:101FC00022642200E026A01D08322366D787C78737
:101FD000E068E3642365A563E787A787F6002368C5
:101FE000B04202D8D28F012A31D95A68714E32409C
:101FF0005A60402223681E68164202D11E6832438E
:102000001A60E0222600D200083690425DD90029ED
:1020100002D0E28F012A06D12A880235DA60E38FE6
:10202000013B9BB2E3870127E38F002B14D1F38F91
:10203000002B11D1019A08992000FFF7CAFE002851
:1020400000D0B3E0266E731E9E41F6B234E08022CB
:102050005E6852013243CBE7002F0FD0E38F002B95
:102060000CD0022123689A680A4207D000272A88E8
:102070006D18DA60E38F013B9BB2E387F38F002B8F
:102080000FD0012123689A680A420AD0DB68009ABF
:102090000F001380130002330093F38F013B9BB2B8
:1020A000F387089B0133BFD0FFF75CF8019BC01A90
:1020B000089B8342B8D80326230001225D331A709F
:1020C00000235C3423703000FEBD002902D0E28F73
:1020D000012A09D1E28F012A4CD92A880235DA6017
:1020E000E38F023B9BB2E3870127E38F002B03D1F1
:1020F000F38F002B00D19DE7002F12D0E38F002B30
:102100000FD0022123689A680A420AD0E28F012A7E
:1021100038D92A886D18DA60E38F023B9BB2E387D7
:102120000027F38F002B1AD0012123689A680A42F6
:1021300015D0F28F8A422DD9DA68009901270A80DA
:102140000A0002320092F28F023A92B2F287F28FC4
:10215000BA4204D88022596852010A435A60089B47
:102160000133C2D0FEF7FEFF019BC01A089B8342D9
:10217000BBD8A0E72A7801351A73E38F013B9BB2E5
:10218000E387B1E72A7801351A73E38F013B9BB2ED
:10219000E387C5E71B7B009A01271370F38F013B90
:1021A0009BB2F387130001330093D8E72023236603
:1021B00048E7C046FFEFFFFFF0B51F00822387B05E
:1021C0000392426804000E005B009A420FD18368BC
:1021D000002B0CD1030004225D331A700097039B7F
:1021E0000A00FFF7B5FE0500280007B0F0BD230088
:1021F0005C3305931B780225012BF5D00123059A4A
:102200001370FEF7AFFF220004905D321378DBB24B
:10221000012B5DD11D00002E5AD0039B002B57D0FF
:1022200004236946137000238989A21D236626644E
:10223000D187694689890232D187E022E168A363A8
:10224000A387E387E3642365D200236891422AD9F8
:102250005A68364802405A608023A2681B029A429C
:1022600004D1226832481368034013604023226877
:102270001068184202D1106803431360E023250060
:10228000DB00083599423FD8EB8F002B10D1049A20
:1022900039002000FFF7C0FD002844D1256E6B1ED9
:1022A0009D41EDB214E08022586852010243D2E70A
:1022B000012123689A680A4207D01B7B3370EB8F99
:1022C0007618013B9BB2EB87DEE7002F07D1032591
:1022D00001235D3423700023059A137084E77B1C6F
:1022E000D2D0FEF73FFF049BC01A8742CCD8EEE75E
:1022F000012123689A680A420AD0DB683380EB8F99
:102300000236013B9BB2EB87EB8F002BF0D1BEE78F
:10231000002FDCD07B1CF7D0FEF724FF049BC01AF3
:102320008742F1D8D3E720232366B7E7FFEFFFFF0B
:10233000FFBFFFFFF7B50600009101925C363578CC
:102340000224012D4ED0C5680700AC4601255D373B
:1023500035703D78EDB2012D0AD04268110082221D
:10236000520091423CD18268002A39D1042D37D1E4
:10237000009A0124002A33D0019A002A30D0002B81
:102380002ED03C78042C01D005243C700024E021A0
:10239000009A04668263019A83870264821DC38760
:1023A00002329387C900D3878C451DD9134BC36470
:1023B000134B036503688C4502D8D28F012A17D9C5
:1023C0005A6810490A405A60E022596800240A43BA
:1023D0005A6040221968114202D119680A431A60F2
:1023E000002333702000FEBD074BC364074BE0E7BA
:1023F0008022596852010A43E5E7C0464525000896
:1024000011250008FFEFFFFFB3240008692400082E
:102410007047704770B504002025FEF7A3FE2168C1
:1024200002004B682000AB434B606421FFF7D1FCF6
:10243000002802D0236E1D4325662300226E5D33E3
:10244000002A0BD1197801321A702000042902D118
:10245000FFF7DEFF70BD01F0E5F9FBE70122200088
:102460001A70FFF7D6FFF5E7C18F10B50268836BCE
:10247000012917D919880233D1608363C38F023BC6
:102480009BB2C387C38F002B0BD180210268536896
:102490008B43536003000833DB8F002B01D1FFF720
:1024A000B9FF10BD591C81631B781373C38F013BA7
:1024B000E6E7030010B50833DC8F026C0168012CDD
:1024C0001DD9CC68148002320264DA8F023A92B2CB
:1024D000DA87DA8F012A04D180224C685201224324
:1024E0004A60DB8F002B09D16021026853688B435F
:1024F0005360C38F002B01D1FFF78CFF10BD541C1C
:102500000464097B1170DA8F013A92B2DA87E8E746
:10251000836B0268198810B50233D1608363C38F5F
:10252000013B9BB2C387C38F002B0AD18021536824
:102530008B43536003000833DB8F002B01D1FFF77F
:1025400069FF10BD0268036CD16810B519800100E5
:10255000023303640831CB8F013B9BB2CB87CB8F17
:10256000002B08D1402153688B435360C38F002B4D
:1025700001D1FFF74FFF10BD036830B504004120C3
:1025800059689A6885B01040012806D1480604D5DC
:10259000E36C2000984705B030BD900703D50806CE
:1025A00001D5236DF5E7B02040000242F3D0880644
:1025B000F1D550060FD520005D300078032844D0B7
:1025C0000420256E2843206600200090D8680090E3
:1025D00098680090009890060CD50120256E28433D
:1025E0002066002040250290986802901868A84351
:1025F00018600298D20508D50822206E0243226690
:10260000002203929A680392039A226E002AC2D093
:10261000E0205A6882435A602200DF385D32107031
:102620000230014219D05A688243A06D5A600028D6
:1026300003D00C4B4363FEF738FF606D0028AAD02F
:10264000084B4363FEF731FFA5E700220192DA68E9
:1026500001929B680193019B9DE72000FFF7D9FE43
:1026600099E7C04669260008406A0023020010B5B9
:102670000832D387C387FFF7CCFE10BD5D300078EA
:10268000C0B270470122036A70B593430362036AC4
:1026900044688569723295430A6815430222934360
:1026A0008A681343144A904208D0144EB04205D0B1
:1026B000134EB04202D0134EB04216D10826B34397
:1026C000CE6833430426B343904208D00B4A90426D
:1026D00005D00B4A904202D00A4A904205D10A4ADC
:1026E0008E6922404C69344314434A6844608561D2
:1026F0004263036270BDC046002C014000400140AF
:102700000044014000480140FFFCFFFF70B5732505
:10271000036A174A13400362036A4268C469AC4300
:102720000D682C43134D2B408D682D022B43124D09
:10273000A8420ED1114D1D40CB681B022B43104DFA
:102740002B40104D4E6915408A69324312012A43CD
:1027500008E00D4DA842F4D00C4DA842F1D00C4D2C
:10276000A842EED042604A68C461C263036270BD91
:10277000FFFEFFFFFFFDFFFF002C0140FFF7FFFF03
:10278000FFFBFFFFFFCFFFFF00400140004401407F
:1027900000480140036A144A30B513400362026ADC
:1027A000124C4368C56925400C6824022543104C2F
:1027B00022408C68240322430E4CA04208D00E4CC9
:1027C000A04205D00D4CA04202D00D4CA04204D135
:1027D0000C4C23404C69A401234343604B68C56102
:1027E0000364026230BDC046FFEFFFFFFF8CFFFFB6
:1027F000FFDFFFFF002C014000400140004401408A
:1028000000480140FFBFFFFF01220368D968002094
:102810001143D96019680A431A60704770477047BE
:10282000704770470222036810B51969040011420D
:102830000ED0D96811420BD0053A1A619B69043257
:1028400002779B0700D179E0FFF7E9FF00232377A8
:10285000042223681969114210D0D96811420DD0A1
:10286000093A1A61073222779A69C0239B00200037
:102870001A4269D0FFF7D3FF002323770822236889
:10288000196911420ED0D96811420BD0113A1A6160
:10289000DB690D32227720009B075BD0FFF7BFFF7B
:1028A00000232377102223681969114210D0D968B8
:1028B00011420DD0213A1A6119322277DA69C02308
:1028C0009B0020001A424BD0FFF7A9FF002323777B
:1028D000012223681969114207D0D968114204D036
:1028E000033A1A61200000F0A9FF802223681969C9
:1028F000114208D0D968114205D0023AFF3A1A6154
:10290000200000F0B7F9402223681969114207D06E
:10291000D968114204D0813A1A612000FFF781FF83
:10292000202223681969114207D0D968114204D0C6
:10293000413A1A61200000F09CF910BDFFF76EFFCC
:102940002000FFF76DFF81E7FFF768FF2000FFF72A
:1029500067FF91E7FFF762FF2000FFF761FF9FE746
:10296000FFF75CFF2000FFF75BFFAFE7204A10B5E1
:102970000368904206D08024E405A04202D01D4C9A
:10298000A0420CD17024A3434C682343904212D040
:102990008024E405A0420ED0164CA0420BD0164C69
:1029A000A04208D0154CA04205D0154CA04202D040
:1029B000144CA04203D1144C2340CC682343802400
:1029C000A3434C69234303608B68C3620B68836233
:1029D000904208D0094B984205D0094B984202D04A
:1029E000084B984201D10B6903630123436110BD79
:1029F000002C014000040040002000400040014045
:102A00000044014000480140FFFCFFFF70B5040096
:102A10000120002C14D025003D352B78DBB2002B93
:102A200005D122003C321370200001F0E3F80223AC
:102A300020682B70211DFFF799FF012300202B70C8
:102A400070BD70B504000120002C14D025003D3568
:102A50002B78DBB2002B05D122003C321370200012
:102A600001F0B4F8022320682B70211DFFF77EFFD0
:102A7000012300202B7070BD1022036A70B59343B0
:102A80000362026A164D436884692C400D682D026A
:102A90002C432025AA438D682D012A43114DA842BD
:102AA0000FD18025AA431500CA6812012A43402588
:102AB000AA430D4D4E691D408B6933439B002B4348
:102AC00008E00A4DA842F4D0094DA842F1D0094DC2
:102AD000A842EED043604B6884618363026270BD9C
:102AE000FF8CFFFF002C0140FFF3FFFF004001407F
:102AF0000044014000480140F8B5060002233C367E
:102B00000D00317804001800012925D0270001218B
:102B10003D3731703B700C2A1AD81000FDF7FEFAD1
:102B2000071818181D1818182F1818184100290010
:102B30002068FFF7A7FD0822236899690A4304214A
:102B40009A619A698A439A619A6929690A439A61E2
:102B5000012300203B703070F8BD29002068FFF78A
:102B60008BFF80222368120199690A439A619A694E
:102B700015490A409A612A6999691202E6E7290013
:102B80002068FFF7C3FD08222368D9690A4304219E
:102B9000DA61DA698A43DA61DA6929690A43DA6152
:102BA000D6E729002068FFF7F5FD8022236812018F
:102BB000D9690A43DA61DA6903490A40DA612A69A4
:102BC000D9691202EAE7C046FFFBFFFF10B50124F6
:102BD0008C408A40036AA3430362036A1A43026279
:102BE00010BD000010B5040001220068FFF7EEFFE1
:102BF00023680B4A934208D00A4A934205D00A4AF6
:102C0000934202D0094A934204D18022596C1202A5
:102C10000A435A640122196800200A431A6010BD51
:102C2000002C0140004001400044014000480140A8
:102C300030B504003C34227803000220012A17D06A
:102C40001D001B683D3528705A686E3082435A60FB
:102C50005A6808684968024380205A609A6882432B
:102C60009A609A6800200A439A6001232B702070B2
:102C700030BD704770470000036806491A686A3023
:102C80000A401A609A682331FF318A439A602023F0
:102C900003707047DFFEFFFF704770477047406A60
:102CA0000023020010B55A321380083A1380FFF750
:102CB000F5FF10BD70B504000568C269836800693E
:102CC0002968034360693D4E03433D481343014077
:102CD0000B432B606B683B49206A0B40E1680B4358
:102CE0006B60A369A9680343374801400B43AB609D
:102CF00080231B02B54210D103203449096B0140E7
:102D00003348405C9A4213D0082855D8FDF706FA9C
:102D1000365441544A5454544F002E498D4249D19F
:102D20009A422BD1FEF74EFF636840005B080BE030
:102D3000082820D8FDF7E8F9F61F051F181F1F1FE8
:102D40001B0063685808244B6168C018FDF7F0F950
:102D500083B200200F22190091430A001B0721684B
:102D60005B0F1343CB6070BDFEF75EFEDCE763686C
:102D700058081900EAE701200023EBE7FEF722FFDD
:102D800061684B081818FDF7D3F980B2E86000209D
:102D9000E9E76168114B48081818FDF7C9F980B2D6
:102DA000F060F4E7FEF740FE61684B08F4E7616805
:102DB0004808F2E79A42DED00120D4E7003801400B
:102DC000F369FFFFFFCFFFFFFFF4FFFF001002409A
:102DD000A83F0008004400400024F40000127A00DC
:102DE000436A30B5DA0706D50168284C4A682240A4
:102DF000846A22434A609A0706D50168244C4A68CF
:102E00002240C46A22434A605A0706D50168214C11
:102E10004A682240046B22434A601A0706D50168BB
:102E20001D4C4A682240446B22434A60DA0606D5AC
:102E300001681A4C8A682240846B22438A609A0691
:102E400006D50168164C8A682240C46B22438A600A
:102E50005A0610D50168134D4A68046C2A40224373
:102E60004A6080225203944205D14A680E4C2240A7
:102E7000446C22434A601B0606D502680B4953681E
:102E80000B40816C0B43536030BDC046FFFFFDFF1C
:102E9000FFFFFEFFFFFFFBFFFF7FFFFFFFEFFFFFD7
:102EA000FFDFFFFFFFFFEFFFFFFF9FFFFFFFF7FFCA
:102EB000F8B504000E0015001F002268D3693340E6
:102EC0009B1B59424B41AB4201D0002018E0069BAE
:102ED0000133F3D0069B002B13D123680C491A68E9
:102EE00003200A401A609A68A331FF318A439A602E
:102EF000220020236932137053700023683423703A
:102F0000F8BDFEF72FF9069BC01B8342D5D2E4E73C
:102F10005FFEFFFF73B500260400C666FEF722F9C8
:102F2000164A23680500934208D02200202300207F
:102F30006932683413705370207076BD1B681B07AC
:102F40000FD423681B685B07EFD580210C4B002250
:102F50000093C9032B002000FFF7AAFF00280BD124
:102F6000E3E78021064B3200009389030300200031
:102F7000FFF79EFF0028E4D00320DEE70038014081
:102F8000FFFFFF0170B5041E01D1012070BD0500D7
:102F900069352B78DBB2002B04D102006832137044
:102FA00000F0ECFE2423012122682B70136820001E
:102FB0008B431360FFF77EFE0128E6D0636A002B87
:102FC00002D02000FFF70CFF236808495A68200050
:102FD0000A402A215A609A688A439A600122196835
:102FE0000A431A60FFF796FFD0E7C046FFB7FFFF1E
:102FF000030030B569331B7802000220212B0FD16A
:1030000014005234238811689BB2002B09D10A683E
:103010007E3082430A604022086802430A60002032
:1030200030BD802095684001D36C85420DD1106978
:1030300000280AD118880233C005C00D0885D36462
:103040002388013B9BB22380E9E7581CD0641B789E
:103050000B85F5E74021026810B513688B431360B8
:103060000300202269331A70FFF716FE002010BDFE
:10307000020070B56A321178036822292DD101004F
:1030800080245C310D88998C640129408568436DEA
:10309000A5421ED10469002C1BD11980023343655F
:1030A000010000245A310B88013B9BB20B80A342E4
:1030B0000DD103680C4D19682940196099682335B2
:1030C000FF35A943996020231370FFF7E6FD200028
:1030D00070BD5C1C44651970E2E7082299690224FE
:1030E0000A439A61F3E7C046DFFEFFFF0F21026843
:1030F000F8B5D36904001940106808D120252B4287
:1031000005D0284203D02000FFF7B2FFF8BD966833
:10311000002961D0012135000D4003D190277F00A7
:10312000384259D00B4205D0C60503D51162E66E70
:103130003143E16602210B4206D0002D04D011621A
:10314000E66E49183143E16604210B4206D0002D9A
:1031500004D01162E66E02393143E166190708D5E1
:10316000810601D4002D04D008211162E26E1143C2
:10317000E166E26E002AC9D02022134204D0104238
:1031800002D02000FFF774FFE36E20001B0704D479
:1031900023689D6840231D401AD0FFF76DFD402134
:1031A00023689A680A420FD09A68606E8A439A60D0
:1031B000002809D01A4B4363FEF777F90028A5D001
:1031C000606E436B9847A1E72000FFF767FD9DE71E
:1031D000FFF764FDE56699E7802149030B420BD0B8
:1031E000750209D511622200202369321370200074
:1031F000537000F017F889E78022134205D010427F
:1032000003D02000FFF7F4FE80E74022134200D1F4
:103210007CE7104200D179E72000FFF71BFF75E73C
:103220009F2C0008704700001FB504211D4C1E4B49
:103230006161C221012223600023FF31200063600D
:10324000A360E3602261A361E36123626362A16220
:10325000E36223636263FDF79BFF002803D04A21EA
:10326000124800F0F7FA0323019380235B010293D5
:10327000802301A95B0520000393FEF72FF80028A7
:1032800003D05421094800F0E5FA0A2301A92000DF
:103290000193FEF723F8002803D05C21034800F0D7
:1032A000D9FA1FBD4C00002000240140AC3F0008AB
:1032B00030B5124B026887B09A421CD18020104A68
:1032C00080009169032501439161936900240340C3
:1032D0000093009B012301A90A48019302950394DE
:1032E000FEF706F99020082301A9C0050193029575
:1032F0000394FEF7FDF807B030BDC046002401403E
:10330000001002400008004810B5012204002021EE
:103310000348FEF79DF96420024B001B586310BD63
:10332000000400480004004010B5040000222021E1
:103330000248FEF78DF9024B5C6310BD00040048A3
:103340000004004010B5002220210348FEF780F958
:103350000022024B5A6310BD0004004800040040E4
:10336000F8B54B1E9BB2622B57D8081AFDF71CFE0E
:103370002D4D061C2968FDF73BFBEF68041C6968AE
:10338000381CFDF735FB011C201CFCF7AFFF296939
:10339000041CA868FDF72CFB011C201CFCF7A6FFF1
:1033A0006969FCF7A3FF2F61EE6068610021041CCE
:1033B000FCF770FF002811D01C49201CFCF76AFFA5
:1033C000002800D0194C201CFCF778FFC0B2FFF792
:1033D0009BFF201CFDF7C8FD40B2F8BD0021201C5A
:1033E000FCF744FF00280FD01149201CFCF73EFFDA
:1033F000002800D00E4C80231B06E018FCF75EFF6F
:10340000C0B2FFF791FFE4E70021201CFCF728FF82
:103410000028DED0FFF796FFDBE7002901D1FFF798
:1034200091FF0024D5E7C046200000200000C842DC
:103430000000C8C2F8B58669056A04000F00C169BA
:10344000301CFCF753FF291CFCF750FF8023206041
:103450001B06291C281CF618FCF748FF011C301C11
:10346000FDF7E6FBA5606060002F05D020000C2270
:103470000C30002100F013FDF8BD000009480A4B94
:1034800010B58361094B0121C361FC239B050362D5
:10349000FFF7D0FF00210648FFF7A4FBFFF752FF1C
:1034A00010BDC046200000200000204117B7D138D1
:1034B000B0010020F8B5070015000E00FFF742FF2D
:1034C0003800FDF7C1FD0C49FDF7A2F80B4CA061D7
:1034D0003000FDF7B9FD0A49FDF79AF8E0612800D0
:1034E000FDF7B2FD0649FDF793F8012120622000A7
:1034F000FFF7A0FFF8BDC04600007A44200000207E
:1035000000401C468020314BC0035969F0B501438F
:1035100059615A698BB0024080200192019A596921
:103520000003014359615A699027024080200292AA
:10353000029A596980020143596180215A69C9027E
:1035400002400392039A5A69FF050A435A615B6974
:1035500038000B40049300221421049BFEF778F8F6
:10356000C0211B4D002228000901FEF771F800223E
:10357000A0211848FEF76CF800240126142305A9A1
:1035800038000593069607940894FDF7B1FFF023E1
:1035900005A99B002800059306940794FDF7A8FF52
:1035A000C02305A91B0128000593069607940894DB
:1035B000FDF79EFFA02305A90648059306960794EC
:1035C0000894FDF795FF0BB0F0BDC0460010024017
:1035D000000800480004004870B5902406000D0063
:1035E000E405200001221021FEF732F8200000221D
:1035F0000421FEF72DF83100AAB2064B0648FEF76B
:10360000DBFD0500012220000421FEF721F828003F
:1036100070BDC046881300000C010020112330B596
:1036200097B00A93013B109380235B02012413930C
:10363000022500230AA80B940D940F94129514935D
:103640001593FEF70FF8011E00D0FEE70723039045
:10365000049001A801930295FEF718FA002800D003
:10366000FEE7079005A80594FEF7BCFA041E00D0FB
:10367000FEE7FEF7A1FAFA218900FCF759FDFDF7F4
:10368000E7FE0420FDF7FEFE01202200210040425B
:10369000FDF7A4FE17B030BDF0B58BB008220021B5
:1036A00006A800F0FCFBFDF745FDFFF7B7FFFFF7AD
:1036B00029FFFFF7B9FD00F021F900F049F900F00A
:1036C0004DFA00F069FA00F0F9FA00F037FB4C48C7
:1036D000FFF79AF84B4904A800F018FA4A494B48FA
:1036E00000F0FBF8FFF7CAFEFFF72CFE082308AA3C
:1036F00006A94748FEF71EFEFA2000258000FDF7C8
:1037000037FD00950195434B1B78012B3CD1404878
:10371000FEF7B4FF012837D13C4F08A9380000F06C
:103720009AF8394C002864D13E78022E4ED007D842
:10373000002E5ED0200000F0DBF8002301930BE0A8
:103740000F2E39D01F2EF5D1002D3BD1FA22009B30
:1037500092009B182670E38006A92B4800F0A1F880
:103760002B4C2000FEF78AFF0128F9D1082308AA74
:1037700006A92000FEF7DEFD2000FEF77FFF0328EC
:10378000FAD00022234B1A70234C2378012BBAD194
:1037900004A800F0C0F904AB04229B5E051E009350
:1037A0002BD101991800FFF7DBFD80211B48FDF7A5
:1037B00055FF00232370A6E7FB88194A9B181BB20C
:1037C0000193C1E7552365802370C5E77B88029389
:1037D000BB8802980393FF8819003A00FFF76AFE3E
:1037E0006B461B89267063806B469B89E780A380AC
:1037F000B2E7200000F07CF8AEE7FFF7A3FDD8E7C2
:10380000F0010020D935000898000020A000002019
:10381000A8000020440000204500002000040048CB
:1038200018FCFFFF034B02689A4202D10122024BAF
:103830001A7070470038004044000020034B0268B3
:103840009A4202D10122024B1A7070470044014093
:1038500045000020FEE70B00002230B5CC1D1D788E
:1038600001336A40A342FAD1CB79934212D10B784B
:1038700003704A788B78120213434380CA780B791D
:103880001202134383804A798B7912021343C38057
:10389000002030BD0023037043808380C38001205B
:1038A000F7E710B5037800220B7043881B0A4B70B2
:1038B00043888B7083881B0ACB7083880B71072326
:1038C000C3564B71C388C81D8B710B001C78013324
:1038D00062408342FAD1CA7110BD00230F220370E7
:1038E00043808380C3800A704B808B80CB8070477D
:1038F0000023037043808380C3807047E022114817
:10390000114B10B503608223D200C26080225B009D
:103910004360002392008261E93AFF3AC261113AA2
:10392000836003614361036243628362C262036333
:103930004363FEF7AFFA002803D048210348FFF79E
:1039400089FF10BD0C01002000300140B93F000884
:10395000E0220E480E4BD20010B50360C260002377
:1039600007224360836003614361836103624362B2
:103970008362C26203634363FEF78CFA002803D0BC
:103980005F210448FFF766FF10BDC046A800002075
:1039900000380040B93F000810B50368204A88B0DD
:1039A000934219D180201F4A4001916901439161DE
:1039B0009369032203400193019BE023902003932A
:1039C000DE3B0493002303A9C005059306920793E9
:1039D000FDF78EFD08B010BD134A9342FAD1802046
:1039E000104AC001D16900240143D161D36903A900
:1039F00003400293029BF0231B02039302230B4814
:103A000004930133069305940794FDF771FD22009A
:103A100021001A20FDF7E2FC1A20FDF70FFDD9E77F
:103A2000003001400010024000380040000400480F
:103A300007B501200C4A9169014391619369002205
:103A40000340110001930638019BFDF7C7FC0022DB
:103A5000022011004042FDF7C1FC002201201100AC
:103A60004042FDF7BBFC07BD0010024070477047A5
:103A700010B5FDF76FFBFDF714FD10BD10B5024842
:103A8000FEF7D0FE10BDC046F001002010B5024880
:103A9000FEF772FD10BDC046A800002010B5024818
:103AA000FFF724FB10BDC046300200200121114B5E
:103AB00011481A680A431A605A6802405A601A6824
:103AC0000E4802401A601A680D4802401A605A688F
:103AD0000C4802400F205A60DA6A8243DA621A6B9D
:103AE000094802401A635A6B8A435A6300229A605B
:103AF0007047C046001002400CB8FFF8FFFFF6FE0A
:103B0000FFFFFBFFFFFFC0FFACFEFFFF00230160D4
:103B10008380C380704737B5040001AD02212800BF
:103B200023689847002815D12A786B78120213432E
:103B30005A0710D58022DB085201134202D0E0223E
:103B4000120213430F211BB2DA170A40D2181211C6
:103B5000A280E3803EBD0120FCE700000A480B4B39
:103B600010B503600A4B312243600023C2608360BA
:103B7000036143618361FEF749FF002803D066219A
:103B80000448FFF767FE10BDF0010020004401402B
:103B90007F3E0000DE3F000809480A4B10B5036075
:103BA000002343608360C360036143618361FEF768
:103BB0002DFF002803D077210348FFF74BFE10BDEF
:103BC0007001002000480140DE3F0008074B0268FA
:103BD00082B09A4208D10220054AD1690143D161DD
:103BE000D36903400193019B02B070470004004079
:103BF0000010024010B50368204A88B0934220D1DB
:103C000080201F4A800291690024014391619369D9
:103C100003A903400193019B80235B000393194890
:103C2000FE3B0493079305940694FDF761FC152071
:103C300022002100FDF7D2FB1520FDF7FFFB08B0A5
:103C400010BD114A9342FAD180200D4AC0029169F9
:103C5000014391619369002203400293029B8023F8
:103C60009B000393FF3BFF3B03A906480493059287
:103C700006920793FDF73CFCE1E7C0460044014093
:103C80000010024000040048004801407FB5094B85
:103C900002689A420CD1102301930E3B0293002339
:103CA00001A903930493044801330593FDF720FC15
:103CB00007B000BD000400400004004810B51B4BD5
:103CC0001B4C632223601B4B8AB0636000232000DF
:103CD000A360E2602361A361FEF7B3FE002803D076
:103CE00043211548FFF7B6FD002301A920000193E9
:103CF0000293FEF79DFF002803D04A210E48FFF7EC
:103D0000A9FD0022602303A92000039304920592D9
:103D10000792FEF7F1FE002803D053210648FFF773
:103D200099FD2000FFF7B2FF0AB010BD000400406B
:103D3000B00100203F060000DE3F00080C480D4B9C
:103D400010B5036096231B0243600C2200234261DE
:103D50008360C36003618361C36103624362FFF7F1
:103D600011F9002803D044210348FFF773FD10BD6B
:103D70003002002000380140EB3F000870B5194BBD
:103D8000026886B09A422BD18020174AC0019169FF
:103D90000124014391619369022603400093009B33
:103DA000902080230325DB0001A9C0050193039423
:103DB000059402960495FDF79BFB40230394002491
:103DC00001A90A480193029604950594FDF790FB1A
:103DD0001B2022002100FDF701FB1B20FDF72EFB1D
:103DE00006B070BD003801400010024000040048D9
:103DF0000D488546002103E00C4B5B5843500431CD
:103E00000B480C4B42189A42F6D30B4A02E00023AF
:103E100013600432094B9A42F9D3FFF747FE00F0D2
:103E200011F8FFF739FCFEE70020002004400008ED
:103E3000000000200400002004000020A002002058
:103E4000FEE7000070B500260C4D0D4C641BA4105D
:103E5000A64209D1002600F02BF80A4D0A4C641B3B
:103E6000A410A64205D170BDB300EB5898470136A7
:103E7000EEE7B300EB5898470136F2E7FC3F000845
:103E8000FC3F0008FC3F000800400008002310B57C
:103E90009A4200D110BDCC5CC4540133F8E7030052
:103EA0008218934200D1704719700133F9E700007E
:103EB000F8B5C046F8BC08BC9E467047F8B5C04689
:083EC000F8BC08BC9E467047E7
:103EC80002030405060708090A0B0C0D0E0F101053
:103ED8000102030405060708090A0B0C0D0E0F1052
:103EE8009C0700086C0700087E070008C006000849
:103EF8007E070008620700087E070008C006000861
:103F08006C0700086C07000862070008C006000874
:103F1800C8060008C8060008C80600088407000884
:103F28006C0700086C070008400700082408000810
:103F38004007000862070008400700082408000836
:103F48006C0700086C0700086207000824080008CE
:103F5800C8060008C8060008C80600082E08000899
:103F68001C0B00086C0A00086C0A00086A0A0008A2
:103F78000E0B00080E0B0008040B00086A0A000864
:103F88000E0B0008040B00080E0B00086A0A000854
:103F9800140B0008140B0008140B0008A40B0008ED
:103FA800000408022E2E5C5372635C6164632E6306
:103FB800002E2E5C5372635C7370692E63000000E0
:103FC80000000000000001020304060708090000C1
:103FD8000000010203042E2E5C5372635C74696D49
:103FE8002E63002E2E5C5372635C75736172742E9F
:043FF8006300000062
:043FFC00E9000008D0
:04400000C1000008F3
:0440040000127A002C
:0400000508003DF1C1
:00000001FF
